{
  "address": "0xf7f861870aC67B27322E6f23f3442E660103Ce00",
  "abi": [
    {
      "inputs": [
        {
          "internalType": "string",
          "name": "_name",
          "type": "string"
        },
        {
          "internalType": "string",
          "name": "_symbol",
          "type": "string"
        },
        {
          "internalType": "address",
          "name": "_lzEndpoint",
          "type": "address"
        },
        {
          "internalType": "address",
          "name": "_delegate",
          "type": "address"
        },
        {
          "internalType": "address",
          "name": "_issuer",
          "type": "address"
        },
        {
          "internalType": "uint256",
          "name": "_initialTokenReward",
          "type": "uint256"
        }
      ],
      "stateMutability": "nonpayable",
      "type": "constructor"
    },
    {
      "inputs": [
        {
          "internalType": "address",
          "name": "spender",
          "type": "address"
        },
        {
          "internalType": "uint256",
          "name": "allowance",
          "type": "uint256"
        },
        {
          "internalType": "uint256",
          "name": "needed",
          "type": "uint256"
        }
      ],
      "name": "ERC20InsufficientAllowance",
      "type": "error"
    },
    {
      "inputs": [
        {
          "internalType": "address",
          "name": "sender",
          "type": "address"
        },
        {
          "internalType": "uint256",
          "name": "balance",
          "type": "uint256"
        },
        {
          "internalType": "uint256",
          "name": "needed",
          "type": "uint256"
        }
      ],
      "name": "ERC20InsufficientBalance",
      "type": "error"
    },
    {
      "inputs": [
        {
          "internalType": "address",
          "name": "approver",
          "type": "address"
        }
      ],
      "name": "ERC20InvalidApprover",
      "type": "error"
    },
    {
      "inputs": [
        {
          "internalType": "address",
          "name": "receiver",
          "type": "address"
        }
      ],
      "name": "ERC20InvalidReceiver",
      "type": "error"
    },
    {
      "inputs": [
        {
          "internalType": "address",
          "name": "sender",
          "type": "address"
        }
      ],
      "name": "ERC20InvalidSender",
      "type": "error"
    },
    {
      "inputs": [
        {
          "internalType": "address",
          "name": "spender",
          "type": "address"
        }
      ],
      "name": "ERC20InvalidSpender",
      "type": "error"
    },
    {
      "inputs": [],
      "name": "InvalidDelegate",
      "type": "error"
    },
    {
      "inputs": [],
      "name": "InvalidEndpointCall",
      "type": "error"
    },
    {
      "inputs": [],
      "name": "InvalidLocalDecimals",
      "type": "error"
    },
    {
      "inputs": [
        {
          "internalType": "bytes",
          "name": "options",
          "type": "bytes"
        }
      ],
      "name": "InvalidOptions",
      "type": "error"
    },
    {
      "inputs": [],
      "name": "LzAltTokenUnavailable",
      "type": "error"
    },
    {
      "inputs": [],
      "name": "LzTokenUnavailable",
      "type": "error"
    },
    {
      "inputs": [
        {
          "internalType": "uint32",
          "name": "eid",
          "type": "uint32"
        }
      ],
      "name": "NoPeer",
      "type": "error"
    },
    {
      "inputs": [
        {
          "internalType": "uint256",
          "name": "msgValue",
          "type": "uint256"
        }
      ],
      "name": "NotEnoughNative",
      "type": "error"
    },
    {
      "inputs": [
        {
          "internalType": "address",
          "name": "addr",
          "type": "address"
        }
      ],
      "name": "OnlyEndpoint",
      "type": "error"
    },
    {
      "inputs": [
        {
          "internalType": "uint32",
          "name": "eid",
          "type": "uint32"
        },
        {
          "internalType": "bytes32",
          "name": "sender",
          "type": "bytes32"
        }
      ],
      "name": "OnlyPeer",
      "type": "error"
    },
    {
      "inputs": [],
      "name": "OnlySelf",
      "type": "error"
    },
    {
      "inputs": [
        {
          "internalType": "address",
          "name": "owner",
          "type": "address"
        }
      ],
      "name": "OwnableInvalidOwner",
      "type": "error"
    },
    {
      "inputs": [
        {
          "internalType": "address",
          "name": "account",
          "type": "address"
        }
      ],
      "name": "OwnableUnauthorizedAccount",
      "type": "error"
    },
    {
      "inputs": [
        {
          "internalType": "address",
          "name": "token",
          "type": "address"
        }
      ],
      "name": "SafeERC20FailedOperation",
      "type": "error"
    },
    {
      "inputs": [
        {
          "internalType": "bytes",
          "name": "result",
          "type": "bytes"
        }
      ],
      "name": "SimulationResult",
      "type": "error"
    },
    {
      "inputs": [
        {
          "internalType": "uint256",
          "name": "amountLD",
          "type": "uint256"
        },
        {
          "internalType": "uint256",
          "name": "minAmountLD",
          "type": "uint256"
        }
      ],
      "name": "SlippageExceeded",
      "type": "error"
    },
    {
      "inputs": [],
      "name": "Source__IncorrectProver",
      "type": "error"
    },
    {
      "inputs": [],
      "name": "Source__InvalidTokenRewardRequested",
      "type": "error"
    },
    {
      "inputs": [],
      "name": "Source__OnlyIssuer",
      "type": "error"
    },
    {
      "inputs": [],
      "name": "Source__OnlyIssuerCanReceiveTokens",
      "type": "error"
    },
    {
      "anonymous": false,
      "inputs": [
        {
          "indexed": true,
          "internalType": "address",
          "name": "owner",
          "type": "address"
        },
        {
          "indexed": true,
          "internalType": "address",
          "name": "spender",
          "type": "address"
        },
        {
          "indexed": false,
          "internalType": "uint256",
          "name": "value",
          "type": "uint256"
        }
      ],
      "name": "Approval",
      "type": "event"
    },
    {
      "anonymous": false,
      "inputs": [
        {
          "indexed": true,
          "internalType": "bytes32",
          "name": "docKeyHash",
          "type": "bytes32"
        },
        {
          "indexed": false,
          "internalType": "address",
          "name": "prover",
          "type": "address"
        },
        {
          "indexed": false,
          "internalType": "bytes",
          "name": "signedHash",
          "type": "bytes"
        }
      ],
      "name": "DocIssued",
      "type": "event"
    },
    {
      "anonymous": false,
      "inputs": [
        {
          "indexed": true,
          "internalType": "bytes32",
          "name": "docKeyHash",
          "type": "bytes32"
        },
        {
          "indexed": false,
          "internalType": "bytes",
          "name": "proof",
          "type": "bytes"
        },
        {
          "indexed": false,
          "internalType": "uint40",
          "name": "timestamp",
          "type": "uint40"
        }
      ],
      "name": "DocProofUpdated",
      "type": "event"
    },
    {
      "anonymous": false,
      "inputs": [
        {
          "components": [
            {
              "internalType": "uint32",
              "name": "eid",
              "type": "uint32"
            },
            {
              "internalType": "uint16",
              "name": "msgType",
              "type": "uint16"
            },
            {
              "internalType": "bytes",
              "name": "options",
              "type": "bytes"
            }
          ],
          "indexed": false,
          "internalType": "struct EnforcedOptionParam[]",
          "name": "_enforcedOptions",
          "type": "tuple[]"
        }
      ],
      "name": "EnforcedOptionSet",
      "type": "event"
    },
    {
      "anonymous": false,
      "inputs": [
        {
          "indexed": false,
          "internalType": "address",
          "name": "inspector",
          "type": "address"
        }
      ],
      "name": "MsgInspectorSet",
      "type": "event"
    },
    {
      "anonymous": false,
      "inputs": [
        {
          "indexed": true,
          "internalType": "bytes32",
          "name": "guid",
          "type": "bytes32"
        },
        {
          "indexed": false,
          "internalType": "uint32",
          "name": "srcEid",
          "type": "uint32"
        },
        {
          "indexed": true,
          "internalType": "address",
          "name": "toAddress",
          "type": "address"
        },
        {
          "indexed": false,
          "internalType": "uint256",
          "name": "amountReceivedLD",
          "type": "uint256"
        }
      ],
      "name": "OFTReceived",
      "type": "event"
    },
    {
      "anonymous": false,
      "inputs": [
        {
          "indexed": true,
          "internalType": "bytes32",
          "name": "guid",
          "type": "bytes32"
        },
        {
          "indexed": false,
          "internalType": "uint32",
          "name": "dstEid",
          "type": "uint32"
        },
        {
          "indexed": true,
          "internalType": "address",
          "name": "fromAddress",
          "type": "address"
        },
        {
          "indexed": false,
          "internalType": "uint256",
          "name": "amountSentLD",
          "type": "uint256"
        },
        {
          "indexed": false,
          "internalType": "uint256",
          "name": "amountReceivedLD",
          "type": "uint256"
        }
      ],
      "name": "OFTSent",
      "type": "event"
    },
    {
      "anonymous": false,
      "inputs": [
        {
          "indexed": true,
          "internalType": "address",
          "name": "previousOwner",
          "type": "address"
        },
        {
          "indexed": true,
          "internalType": "address",
          "name": "newOwner",
          "type": "address"
        }
      ],
      "name": "OwnershipTransferred",
      "type": "event"
    },
    {
      "anonymous": false,
      "inputs": [
        {
          "indexed": false,
          "internalType": "uint32",
          "name": "eid",
          "type": "uint32"
        },
        {
          "indexed": false,
          "internalType": "bytes32",
          "name": "peer",
          "type": "bytes32"
        }
      ],
      "name": "PeerSet",
      "type": "event"
    },
    {
      "anonymous": false,
      "inputs": [
        {
          "indexed": false,
          "internalType": "address",
          "name": "preCrimeAddress",
          "type": "address"
        }
      ],
      "name": "PreCrimeSet",
      "type": "event"
    },
    {
      "anonymous": false,
      "inputs": [
        {
          "indexed": true,
          "internalType": "address",
          "name": "from",
          "type": "address"
        },
        {
          "indexed": true,
          "internalType": "address",
          "name": "to",
          "type": "address"
        },
        {
          "indexed": false,
          "internalType": "uint256",
          "name": "value",
          "type": "uint256"
        }
      ],
      "name": "Transfer",
      "type": "event"
    },
    {
      "inputs": [],
      "name": "SEND",
      "outputs": [
        {
          "internalType": "uint16",
          "name": "",
          "type": "uint16"
        }
      ],
      "stateMutability": "view",
      "type": "function"
    },
    {
      "inputs": [],
      "name": "SEND_AND_CALL",
      "outputs": [
        {
          "internalType": "uint16",
          "name": "",
          "type": "uint16"
        }
      ],
      "stateMutability": "view",
      "type": "function"
    },
    {
      "inputs": [
        {
          "internalType": "address",
          "name": "_addr",
          "type": "address"
        }
      ],
      "name": "addressToBytes32",
      "outputs": [
        {
          "internalType": "bytes32",
          "name": "",
          "type": "bytes32"
        }
      ],
      "stateMutability": "pure",
      "type": "function"
    },
    {
      "inputs": [
        {
          "components": [
            {
              "internalType": "uint32",
              "name": "srcEid",
              "type": "uint32"
            },
            {
              "internalType": "bytes32",
              "name": "sender",
              "type": "bytes32"
            },
            {
              "internalType": "uint64",
              "name": "nonce",
              "type": "uint64"
            }
          ],
          "internalType": "struct Origin",
          "name": "origin",
          "type": "tuple"
        }
      ],
      "name": "allowInitializePath",
      "outputs": [
        {
          "internalType": "bool",
          "name": "",
          "type": "bool"
        }
      ],
      "stateMutability": "view",
      "type": "function"
    },
    {
      "inputs": [
        {
          "internalType": "address",
          "name": "owner",
          "type": "address"
        },
        {
          "internalType": "address",
          "name": "spender",
          "type": "address"
        }
      ],
      "name": "allowance",
      "outputs": [
        {
          "internalType": "uint256",
          "name": "",
          "type": "uint256"
        }
      ],
      "stateMutability": "view",
      "type": "function"
    },
    {
      "inputs": [],
      "name": "approvalRequired",
      "outputs": [
        {
          "internalType": "bool",
          "name": "",
          "type": "bool"
        }
      ],
      "stateMutability": "pure",
      "type": "function"
    },
    {
      "inputs": [
        {
          "internalType": "address",
          "name": "spender",
          "type": "address"
        },
        {
          "internalType": "uint256",
          "name": "value",
          "type": "uint256"
        }
      ],
      "name": "approve",
      "outputs": [
        {
          "internalType": "bool",
          "name": "",
          "type": "bool"
        }
      ],
      "stateMutability": "nonpayable",
      "type": "function"
    },
    {
      "inputs": [
        {
          "internalType": "address",
          "name": "account",
          "type": "address"
        }
      ],
      "name": "balanceOf",
      "outputs": [
        {
          "internalType": "uint256",
          "name": "",
          "type": "uint256"
        }
      ],
      "stateMutability": "view",
      "type": "function"
    },
    {
      "inputs": [
        {
          "internalType": "bytes32",
          "name": "_b",
          "type": "bytes32"
        }
      ],
      "name": "bytes32ToAddress",
      "outputs": [
        {
          "internalType": "address",
          "name": "",
          "type": "address"
        }
      ],
      "stateMutability": "pure",
      "type": "function"
    },
    {
      "inputs": [
        {
          "internalType": "uint32",
          "name": "_eid",
          "type": "uint32"
        },
        {
          "internalType": "uint16",
          "name": "_msgType",
          "type": "uint16"
        },
        {
          "internalType": "bytes",
          "name": "_extraOptions",
          "type": "bytes"
        }
      ],
      "name": "combineOptions",
      "outputs": [
        {
          "internalType": "bytes",
          "name": "",
          "type": "bytes"
        }
      ],
      "stateMutability": "view",
      "type": "function"
    },
    {
      "inputs": [],
      "name": "decimalConversionRate",
      "outputs": [
        {
          "internalType": "uint256",
          "name": "",
          "type": "uint256"
        }
      ],
      "stateMutability": "view",
      "type": "function"
    },
    {
      "inputs": [],
      "name": "decimals",
      "outputs": [
        {
          "internalType": "uint8",
          "name": "",
          "type": "uint8"
        }
      ],
      "stateMutability": "view",
      "type": "function"
    },
    {
      "inputs": [
        {
          "internalType": "bytes",
          "name": "_encodedMessage",
          "type": "bytes"
        }
      ],
      "name": "decodeMessage",
      "outputs": [
        {
          "internalType": "address",
          "name": "_receiver",
          "type": "address"
        },
        {
          "internalType": "uint256",
          "name": "_amount",
          "type": "uint256"
        }
      ],
      "stateMutability": "pure",
      "type": "function"
    },
    {
      "inputs": [
        {
          "internalType": "bytes32",
          "name": "docKeyHash",
          "type": "bytes32"
        }
      ],
      "name": "docInfos",
      "outputs": [
        {
          "internalType": "address",
          "name": "prover",
          "type": "address"
        },
        {
          "internalType": "uint40",
          "name": "timestamp",
          "type": "uint40"
        },
        {
          "internalType": "bytes",
          "name": "signedHash",
          "type": "bytes"
        },
        {
          "internalType": "bytes",
          "name": "proof",
          "type": "bytes"
        }
      ],
      "stateMutability": "view",
      "type": "function"
    },
    {
      "inputs": [
        {
          "internalType": "address",
          "name": "_receiver",
          "type": "address"
        },
        {
          "internalType": "uint256",
          "name": "_amount",
          "type": "uint256"
        }
      ],
      "name": "encodeMessage",
      "outputs": [
        {
          "internalType": "bytes",
          "name": "",
          "type": "bytes"
        }
      ],
      "stateMutability": "pure",
      "type": "function"
    },
    {
      "inputs": [],
      "name": "endpoint",
      "outputs": [
        {
          "internalType": "contract ILayerZeroEndpointV2",
          "name": "",
          "type": "address"
        }
      ],
      "stateMutability": "view",
      "type": "function"
    },
    {
      "inputs": [
        {
          "internalType": "uint32",
          "name": "eid",
          "type": "uint32"
        },
        {
          "internalType": "uint16",
          "name": "msgType",
          "type": "uint16"
        }
      ],
      "name": "enforcedOptions",
      "outputs": [
        {
          "internalType": "bytes",
          "name": "enforcedOption",
          "type": "bytes"
        }
      ],
      "stateMutability": "view",
      "type": "function"
    },
    {
      "inputs": [
        {
          "components": [
            {
              "internalType": "uint32",
              "name": "srcEid",
              "type": "uint32"
            },
            {
              "internalType": "bytes32",
              "name": "sender",
              "type": "bytes32"
            },
            {
              "internalType": "uint64",
              "name": "nonce",
              "type": "uint64"
            }
          ],
          "internalType": "struct Origin",
          "name": "",
          "type": "tuple"
        },
        {
          "internalType": "bytes",
          "name": "",
          "type": "bytes"
        },
        {
          "internalType": "address",
          "name": "_sender",
          "type": "address"
        }
      ],
      "name": "isComposeMsgSender",
      "outputs": [
        {
          "internalType": "bool",
          "name": "",
          "type": "bool"
        }
      ],
      "stateMutability": "view",
      "type": "function"
    },
    {
      "inputs": [
        {
          "internalType": "uint32",
          "name": "_eid",
          "type": "uint32"
        },
        {
          "internalType": "bytes32",
          "name": "_peer",
          "type": "bytes32"
        }
      ],
      "name": "isPeer",
      "outputs": [
        {
          "internalType": "bool",
          "name": "",
          "type": "bool"
        }
      ],
      "stateMutability": "view",
      "type": "function"
    },
    {
      "inputs": [
        {
          "internalType": "address",
          "name": "_prover",
          "type": "address"
        },
        {
          "internalType": "bytes32",
          "name": "_docKeyHash",
          "type": "bytes32"
        },
        {
          "internalType": "bytes",
          "name": "_signedHash",
          "type": "bytes"
        },
        {
          "components": [
            {
              "internalType": "uint32",
              "name": "dstEid",
              "type": "uint32"
            },
            {
              "internalType": "bytes32",
              "name": "to",
              "type": "bytes32"
            },
            {
              "internalType": "uint256",
              "name": "amountLD",
              "type": "uint256"
            },
            {
              "internalType": "uint256",
              "name": "minAmountLD",
              "type": "uint256"
            },
            {
              "internalType": "bytes",
              "name": "extraOptions",
              "type": "bytes"
            },
            {
              "internalType": "bytes",
              "name": "composeMsg",
              "type": "bytes"
            },
            {
              "internalType": "bytes",
              "name": "oftCmd",
              "type": "bytes"
            }
          ],
          "internalType": "struct SendParam",
          "name": "_sendParam",
          "type": "tuple"
        },
        {
          "components": [
            {
              "internalType": "uint256",
              "name": "nativeFee",
              "type": "uint256"
            },
            {
              "internalType": "uint256",
              "name": "lzTokenFee",
              "type": "uint256"
            }
          ],
          "internalType": "struct MessagingFee",
          "name": "_fee",
          "type": "tuple"
        }
      ],
      "name": "issueDoc",
      "outputs": [],
      "stateMutability": "payable",
      "type": "function"
    },
    {
      "inputs": [],
      "name": "issuer",
      "outputs": [
        {
          "internalType": "address",
          "name": "",
          "type": "address"
        }
      ],
      "stateMutability": "view",
      "type": "function"
    },
    {
      "inputs": [
        {
          "components": [
            {
              "internalType": "uint32",
              "name": "srcEid",
              "type": "uint32"
            },
            {
              "internalType": "bytes32",
              "name": "sender",
              "type": "bytes32"
            },
            {
              "internalType": "uint64",
              "name": "nonce",
              "type": "uint64"
            }
          ],
          "internalType": "struct Origin",
          "name": "_origin",
          "type": "tuple"
        },
        {
          "internalType": "bytes32",
          "name": "_guid",
          "type": "bytes32"
        },
        {
          "internalType": "bytes",
          "name": "_message",
          "type": "bytes"
        },
        {
          "internalType": "address",
          "name": "_executor",
          "type": "address"
        },
        {
          "internalType": "bytes",
          "name": "_extraData",
          "type": "bytes"
        }
      ],
      "name": "lzReceive",
      "outputs": [],
      "stateMutability": "payable",
      "type": "function"
    },
    {
      "inputs": [
        {
          "components": [
            {
              "components": [
                {
                  "internalType": "uint32",
                  "name": "srcEid",
                  "type": "uint32"
                },
                {
                  "internalType": "bytes32",
                  "name": "sender",
                  "type": "bytes32"
                },
                {
                  "internalType": "uint64",
                  "name": "nonce",
                  "type": "uint64"
                }
              ],
              "internalType": "struct Origin",
              "name": "origin",
              "type": "tuple"
            },
            {
              "internalType": "uint32",
              "name": "dstEid",
              "type": "uint32"
            },
            {
              "internalType": "address",
              "name": "receiver",
              "type": "address"
            },
            {
              "internalType": "bytes32",
              "name": "guid",
              "type": "bytes32"
            },
            {
              "internalType": "uint256",
              "name": "value",
              "type": "uint256"
            },
            {
              "internalType": "address",
              "name": "executor",
              "type": "address"
            },
            {
              "internalType": "bytes",
              "name": "message",
              "type": "bytes"
            },
            {
              "internalType": "bytes",
              "name": "extraData",
              "type": "bytes"
            }
          ],
          "internalType": "struct InboundPacket[]",
          "name": "_packets",
          "type": "tuple[]"
        }
      ],
      "name": "lzReceiveAndRevert",
      "outputs": [],
      "stateMutability": "payable",
      "type": "function"
    },
    {
      "inputs": [
        {
          "components": [
            {
              "internalType": "uint32",
              "name": "srcEid",
              "type": "uint32"
            },
            {
              "internalType": "bytes32",
              "name": "sender",
              "type": "bytes32"
            },
            {
              "internalType": "uint64",
              "name": "nonce",
              "type": "uint64"
            }
          ],
          "internalType": "struct Origin",
          "name": "_origin",
          "type": "tuple"
        },
        {
          "internalType": "bytes32",
          "name": "_guid",
          "type": "bytes32"
        },
        {
          "internalType": "bytes",
          "name": "_message",
          "type": "bytes"
        },
        {
          "internalType": "address",
          "name": "_executor",
          "type": "address"
        },
        {
          "internalType": "bytes",
          "name": "_extraData",
          "type": "bytes"
        }
      ],
      "name": "lzReceiveSimulate",
      "outputs": [],
      "stateMutability": "payable",
      "type": "function"
    },
    {
      "inputs": [
        {
          "internalType": "address",
          "name": "_to",
          "type": "address"
        },
        {
          "internalType": "uint256",
          "name": "_amount",
          "type": "uint256"
        }
      ],
      "name": "mint",
      "outputs": [],
      "stateMutability": "nonpayable",
      "type": "function"
    },
    {
      "inputs": [],
      "name": "msgInspector",
      "outputs": [
        {
          "internalType": "address",
          "name": "",
          "type": "address"
        }
      ],
      "stateMutability": "view",
      "type": "function"
    },
    {
      "inputs": [],
      "name": "name",
      "outputs": [
        {
          "internalType": "string",
          "name": "",
          "type": "string"
        }
      ],
      "stateMutability": "view",
      "type": "function"
    },
    {
      "inputs": [
        {
          "internalType": "uint32",
          "name": "",
          "type": "uint32"
        },
        {
          "internalType": "bytes32",
          "name": "",
          "type": "bytes32"
        }
      ],
      "name": "nextNonce",
      "outputs": [
        {
          "internalType": "uint64",
          "name": "nonce",
          "type": "uint64"
        }
      ],
      "stateMutability": "view",
      "type": "function"
    },
    {
      "inputs": [],
      "name": "oApp",
      "outputs": [
        {
          "internalType": "address",
          "name": "",
          "type": "address"
        }
      ],
      "stateMutability": "view",
      "type": "function"
    },
    {
      "inputs": [],
      "name": "oAppVersion",
      "outputs": [
        {
          "internalType": "uint64",
          "name": "senderVersion",
          "type": "uint64"
        },
        {
          "internalType": "uint64",
          "name": "receiverVersion",
          "type": "uint64"
        }
      ],
      "stateMutability": "pure",
      "type": "function"
    },
    {
      "inputs": [],
      "name": "oftVersion",
      "outputs": [
        {
          "internalType": "bytes4",
          "name": "interfaceId",
          "type": "bytes4"
        },
        {
          "internalType": "uint64",
          "name": "version",
          "type": "uint64"
        }
      ],
      "stateMutability": "pure",
      "type": "function"
    },
    {
      "inputs": [],
      "name": "owner",
      "outputs": [
        {
          "internalType": "address",
          "name": "",
          "type": "address"
        }
      ],
      "stateMutability": "view",
      "type": "function"
    },
    {
      "inputs": [
        {
          "internalType": "uint32",
          "name": "eid",
          "type": "uint32"
        }
      ],
      "name": "peers",
      "outputs": [
        {
          "internalType": "bytes32",
          "name": "peer",
          "type": "bytes32"
        }
      ],
      "stateMutability": "view",
      "type": "function"
    },
    {
      "inputs": [],
      "name": "preCrime",
      "outputs": [
        {
          "internalType": "address",
          "name": "",
          "type": "address"
        }
      ],
      "stateMutability": "view",
      "type": "function"
    },
    {
      "inputs": [
        {
          "components": [
            {
              "internalType": "uint32",
              "name": "dstEid",
              "type": "uint32"
            },
            {
              "internalType": "bytes32",
              "name": "to",
              "type": "bytes32"
            },
            {
              "internalType": "uint256",
              "name": "amountLD",
              "type": "uint256"
            },
            {
              "internalType": "uint256",
              "name": "minAmountLD",
              "type": "uint256"
            },
            {
              "internalType": "bytes",
              "name": "extraOptions",
              "type": "bytes"
            },
            {
              "internalType": "bytes",
              "name": "composeMsg",
              "type": "bytes"
            },
            {
              "internalType": "bytes",
              "name": "oftCmd",
              "type": "bytes"
            }
          ],
          "internalType": "struct SendParam",
          "name": "_sendParam",
          "type": "tuple"
        }
      ],
      "name": "quoteOFT",
      "outputs": [
        {
          "components": [
            {
              "internalType": "uint256",
              "name": "minAmountLD",
              "type": "uint256"
            },
            {
              "internalType": "uint256",
              "name": "maxAmountLD",
              "type": "uint256"
            }
          ],
          "internalType": "struct OFTLimit",
          "name": "oftLimit",
          "type": "tuple"
        },
        {
          "components": [
            {
              "internalType": "int256",
              "name": "feeAmountLD",
              "type": "int256"
            },
            {
              "internalType": "string",
              "name": "description",
              "type": "string"
            }
          ],
          "internalType": "struct OFTFeeDetail[]",
          "name": "oftFeeDetails",
          "type": "tuple[]"
        },
        {
          "components": [
            {
              "internalType": "uint256",
              "name": "amountSentLD",
              "type": "uint256"
            },
            {
              "internalType": "uint256",
              "name": "amountReceivedLD",
              "type": "uint256"
            }
          ],
          "internalType": "struct OFTReceipt",
          "name": "oftReceipt",
          "type": "tuple"
        }
      ],
      "stateMutability": "view",
      "type": "function"
    },
    {
      "inputs": [
        {
          "components": [
            {
              "internalType": "uint32",
              "name": "dstEid",
              "type": "uint32"
            },
            {
              "internalType": "bytes32",
              "name": "to",
              "type": "bytes32"
            },
            {
              "internalType": "uint256",
              "name": "amountLD",
              "type": "uint256"
            },
            {
              "internalType": "uint256",
              "name": "minAmountLD",
              "type": "uint256"
            },
            {
              "internalType": "bytes",
              "name": "extraOptions",
              "type": "bytes"
            },
            {
              "internalType": "bytes",
              "name": "composeMsg",
              "type": "bytes"
            },
            {
              "internalType": "bytes",
              "name": "oftCmd",
              "type": "bytes"
            }
          ],
          "internalType": "struct SendParam",
          "name": "_sendParam",
          "type": "tuple"
        },
        {
          "internalType": "bool",
          "name": "_payInLzToken",
          "type": "bool"
        }
      ],
      "name": "quoteSend",
      "outputs": [
        {
          "components": [
            {
              "internalType": "uint256",
              "name": "nativeFee",
              "type": "uint256"
            },
            {
              "internalType": "uint256",
              "name": "lzTokenFee",
              "type": "uint256"
            }
          ],
          "internalType": "struct MessagingFee",
          "name": "msgFee",
          "type": "tuple"
        }
      ],
      "stateMutability": "view",
      "type": "function"
    },
    {
      "inputs": [],
      "name": "renounceOwnership",
      "outputs": [],
      "stateMutability": "nonpayable",
      "type": "function"
    },
    {
      "inputs": [
        {
          "components": [
            {
              "internalType": "uint32",
              "name": "dstEid",
              "type": "uint32"
            },
            {
              "internalType": "bytes32",
              "name": "to",
              "type": "bytes32"
            },
            {
              "internalType": "uint256",
              "name": "amountLD",
              "type": "uint256"
            },
            {
              "internalType": "uint256",
              "name": "minAmountLD",
              "type": "uint256"
            },
            {
              "internalType": "bytes",
              "name": "extraOptions",
              "type": "bytes"
            },
            {
              "internalType": "bytes",
              "name": "composeMsg",
              "type": "bytes"
            },
            {
              "internalType": "bytes",
              "name": "oftCmd",
              "type": "bytes"
            }
          ],
          "internalType": "struct SendParam",
          "name": "_sendParam",
          "type": "tuple"
        },
        {
          "components": [
            {
              "internalType": "uint256",
              "name": "nativeFee",
              "type": "uint256"
            },
            {
              "internalType": "uint256",
              "name": "lzTokenFee",
              "type": "uint256"
            }
          ],
          "internalType": "struct MessagingFee",
          "name": "_fee",
          "type": "tuple"
        },
        {
          "internalType": "address",
          "name": "_refundAddress",
          "type": "address"
        }
      ],
      "name": "send",
      "outputs": [
        {
          "components": [
            {
              "internalType": "bytes32",
              "name": "guid",
              "type": "bytes32"
            },
            {
              "internalType": "uint64",
              "name": "nonce",
              "type": "uint64"
            },
            {
              "components": [
                {
                  "internalType": "uint256",
                  "name": "nativeFee",
                  "type": "uint256"
                },
                {
                  "internalType": "uint256",
                  "name": "lzTokenFee",
                  "type": "uint256"
                }
              ],
              "internalType": "struct MessagingFee",
              "name": "fee",
              "type": "tuple"
            }
          ],
          "internalType": "struct MessagingReceipt",
          "name": "msgReceipt",
          "type": "tuple"
        },
        {
          "components": [
            {
              "internalType": "uint256",
              "name": "amountSentLD",
              "type": "uint256"
            },
            {
              "internalType": "uint256",
              "name": "amountReceivedLD",
              "type": "uint256"
            }
          ],
          "internalType": "struct OFTReceipt",
          "name": "oftReceipt",
          "type": "tuple"
        }
      ],
      "stateMutability": "payable",
      "type": "function"
    },
    {
      "inputs": [
        {
          "internalType": "address",
          "name": "_delegate",
          "type": "address"
        }
      ],
      "name": "setDelegate",
      "outputs": [],
      "stateMutability": "nonpayable",
      "type": "function"
    },
    {
      "inputs": [
        {
          "components": [
            {
              "internalType": "uint32",
              "name": "eid",
              "type": "uint32"
            },
            {
              "internalType": "uint16",
              "name": "msgType",
              "type": "uint16"
            },
            {
              "internalType": "bytes",
              "name": "options",
              "type": "bytes"
            }
          ],
          "internalType": "struct EnforcedOptionParam[]",
          "name": "_enforcedOptions",
          "type": "tuple[]"
        }
      ],
      "name": "setEnforcedOptions",
      "outputs": [],
      "stateMutability": "nonpayable",
      "type": "function"
    },
    {
      "inputs": [
        {
          "internalType": "address",
          "name": "_issuer",
          "type": "address"
        }
      ],
      "name": "setIssuer",
      "outputs": [],
      "stateMutability": "nonpayable",
      "type": "function"
    },
    {
      "inputs": [
        {
          "internalType": "address",
          "name": "_msgInspector",
          "type": "address"
        }
      ],
      "name": "setMsgInspector",
      "outputs": [],
      "stateMutability": "nonpayable",
      "type": "function"
    },
    {
      "inputs": [
        {
          "internalType": "uint32",
          "name": "_eid",
          "type": "uint32"
        },
        {
          "internalType": "bytes32",
          "name": "_peer",
          "type": "bytes32"
        }
      ],
      "name": "setPeer",
      "outputs": [],
      "stateMutability": "nonpayable",
      "type": "function"
    },
    {
      "inputs": [
        {
          "internalType": "address",
          "name": "_preCrime",
          "type": "address"
        }
      ],
      "name": "setPreCrime",
      "outputs": [],
      "stateMutability": "nonpayable",
      "type": "function"
    },
    {
      "inputs": [
        {
          "internalType": "bytes32",
          "name": "_docKeyHash",
          "type": "bytes32"
        },
        {
          "internalType": "bytes",
          "name": "_proof",
          "type": "bytes"
        },
        {
          "internalType": "uint40",
          "name": "_timestamp",
          "type": "uint40"
        }
      ],
      "name": "setProof",
      "outputs": [],
      "stateMutability": "nonpayable",
      "type": "function"
    },
    {
      "inputs": [],
      "name": "sharedDecimals",
      "outputs": [
        {
          "internalType": "uint8",
          "name": "",
          "type": "uint8"
        }
      ],
      "stateMutability": "view",
      "type": "function"
    },
    {
      "inputs": [],
      "name": "symbol",
      "outputs": [
        {
          "internalType": "string",
          "name": "",
          "type": "string"
        }
      ],
      "stateMutability": "view",
      "type": "function"
    },
    {
      "inputs": [],
      "name": "token",
      "outputs": [
        {
          "internalType": "address",
          "name": "",
          "type": "address"
        }
      ],
      "stateMutability": "view",
      "type": "function"
    },
    {
      "inputs": [],
      "name": "tokenReward",
      "outputs": [
        {
          "internalType": "uint256",
          "name": "",
          "type": "uint256"
        }
      ],
      "stateMutability": "view",
      "type": "function"
    },
    {
      "inputs": [],
      "name": "totalSupply",
      "outputs": [
        {
          "internalType": "uint256",
          "name": "",
          "type": "uint256"
        }
      ],
      "stateMutability": "view",
      "type": "function"
    },
    {
      "inputs": [
        {
          "internalType": "address",
          "name": "to",
          "type": "address"
        },
        {
          "internalType": "uint256",
          "name": "value",
          "type": "uint256"
        }
      ],
      "name": "transfer",
      "outputs": [
        {
          "internalType": "bool",
          "name": "",
          "type": "bool"
        }
      ],
      "stateMutability": "nonpayable",
      "type": "function"
    },
    {
      "inputs": [
        {
          "internalType": "address",
          "name": "from",
          "type": "address"
        },
        {
          "internalType": "address",
          "name": "to",
          "type": "address"
        },
        {
          "internalType": "uint256",
          "name": "value",
          "type": "uint256"
        }
      ],
      "name": "transferFrom",
      "outputs": [
        {
          "internalType": "bool",
          "name": "",
          "type": "bool"
        }
      ],
      "stateMutability": "nonpayable",
      "type": "function"
    },
    {
      "inputs": [
        {
          "internalType": "address",
          "name": "newOwner",
          "type": "address"
        }
      ],
      "name": "transferOwnership",
      "outputs": [],
      "stateMutability": "nonpayable",
      "type": "function"
    },
    {
      "inputs": [
        {
          "internalType": "uint256[2]",
          "name": "_pA",
          "type": "uint256[2]"
        },
        {
          "internalType": "uint256[2][2]",
          "name": "_pB",
          "type": "uint256[2][2]"
        },
        {
          "internalType": "uint256[2]",
          "name": "_pC",
          "type": "uint256[2]"
        },
        {
          "internalType": "uint256[3]",
          "name": "_pubSignals",
          "type": "uint256[3]"
        }
      ],
      "name": "verifyProof",
      "outputs": [
        {
          "internalType": "bool",
          "name": "",
          "type": "bool"
        }
      ],
      "stateMutability": "view",
      "type": "function"
    }
  ],
  "transactionHash": "0xfcf8a90fd407e9d120e0a717314486d988623b6fd85eb9e48661ef0ffa164bde",
  "args": [
    "sourceToken",
    "SCrede",
    "0x82b7dc04A4ABCF2b4aE570F317dcab49f5a10f24",
    "0xde43f899587aaa2Ea6aD243F3d68a5027F2C6a94",
    "0xde43f899587aaa2Ea6aD243F3d68a5027F2C6a94",
    "1000000000000000000"
  ],
  "numDeployments": 1,
  "solcInputHash": "a92a6f65f89de1807f5526247a124c7e",
  "bytecode": "0x60c06040523480156200001157600080fd5b5060405162004698380380620046988339810160408190526200003491620002fa565b85858585838360128484818181818f6001600160a01b0381166200007257604051631e4fbdf760e01b81526000600482015260240160405180910390fd5b6200007d81620001c0565b506001600160a01b038083166080528116620000ac57604051632d618d8160e21b815260040160405180910390fd5b60805160405163ca5eb5e160e01b81526001600160a01b0383811660048301529091169063ca5eb5e190602401600060405180830381600087803b158015620000f457600080fd5b505af115801562000109573d6000803e3d6000fd5b5050505050505050620001216200021060201b60201c565b60ff168360ff16101562000148576040516301e9714b60e41b815260040160405180910390fd5b62000155600684620003ba565b6200016290600a620004d9565b60a0525060089150620001789050838262000582565b50600962000187828262000582565b5050600b80546001600160a01b0319166001600160a01b039890981697909717909655505050600c91909155506200064e945050505050565b600080546001600160a01b038381166001600160a01b0319831681178455604051919092169283917f8be0079c531659141344cd1fd0a4f28419497f9722a3daafe3b4186f6b6457e09190a35050565b600690565b634e487b7160e01b600052604160045260246000fd5b600082601f8301126200023d57600080fd5b81516001600160401b03808211156200025a576200025a62000215565b604051601f8301601f19908116603f0116810190828211818310171562000285576200028562000215565b8160405283815260209250866020858801011115620002a357600080fd5b600091505b83821015620002c75785820183015181830184015290820190620002a8565b6000602085830101528094505050505092915050565b80516001600160a01b0381168114620002f557600080fd5b919050565b60008060008060008060c087890312156200031457600080fd5b86516001600160401b03808211156200032c57600080fd5b6200033a8a838b016200022b565b975060208901519150808211156200035157600080fd5b506200036089828a016200022b565b9550506200037160408801620002dd565b93506200038160608801620002dd565b92506200039160808801620002dd565b915060a087015190509295509295509295565b634e487b7160e01b600052601160045260246000fd5b60ff8281168282160390811115620003d657620003d6620003a4565b92915050565b600181815b808511156200041d578160001904821115620004015762000401620003a4565b808516156200040f57918102915b93841c9390800290620003e1565b509250929050565b6000826200043657506001620003d6565b816200044557506000620003d6565b81600181146200045e5760028114620004695762000489565b6001915050620003d6565b60ff8411156200047d576200047d620003a4565b50506001821b620003d6565b5060208310610133831016604e8410600b8410161715620004ae575081810a620003d6565b620004ba8383620003dc565b8060001904821115620004d157620004d1620003a4565b029392505050565b6000620004ea60ff84168362000425565b9392505050565b600181811c908216806200050657607f821691505b6020821081036200052757634e487b7160e01b600052602260045260246000fd5b50919050565b601f8211156200057d576000816000526020600020601f850160051c81016020861015620005585750805b601f850160051c820191505b81811015620005795782815560010162000564565b5050505b505050565b81516001600160401b038111156200059e576200059e62000215565b620005b681620005af8454620004f1565b846200052d565b602080601f831160018114620005ee5760008415620005d55750858301515b600019600386901b1c1916600185901b17855562000579565b600085815260208120601f198616915b828110156200061f57888601518255948401946001909101908401620005fe565b50858210156200063e5787850151600019600388901b60f8161c191681555b5050505050600190811b01905550565b60805160a051613fd0620006c86000396000818161083c0152818161260d01528181612682015261288601526000818161065f0152818161115301528181611a9401528181611e4b015281816121b50152818161297801528181612a7f01528181612b3801528181612b670152612c200152613fd06000f3fe6080604052600436106103355760003560e01c80637126b99c116101ab578063b98bd070116100f7578063d424388511610095578063f2fde38b1161006f578063f2fde38b14610a2f578063f340bc8514610a4f578063fc0c546a146105a5578063ff7bd03d14610a9957600080fd5b8063d424388514610999578063dd62ed3e146109b9578063e957fe62146109ff57600080fd5b8063bd815db0116100d1578063bd815db014610932578063c7c7f5b314610945578063ca5eb5e114610966578063d045a0dc1461098657600080fd5b8063b98bd070146108c5578063bb0b6a53146108e5578063bc70b3541461091257600080fd5b80638da5cb5b116101645780639f68b9641161013e5780639f68b9641461085e578063a843d86f14610872578063a9059cbb14610885578063b731ea0a146108a557600080fd5b80638da5cb5b146107f757806395d89b4114610815578063963efcaa1461082a57600080fd5b80637126b99c1461072c578063715018a61461074c5780637d25a05e1461076157806382413eac1461079c57806382c947b7146107bc578063857749b0146107e357600080fd5b8063313ce567116102855780635a0dfe4d11610223578063634d45b2116101fd578063634d45b2146106815780636e66f6e9146106c05780636fc1b31e146106d657806370a08231146106f657600080fd5b80635a0dfe4d146105f85780635ced058e1461062f5780635e280f111461064d57600080fd5b806340c10f191161025f57806340c10f191461058557806352ae2879146105a55780635535d461146105b857806355cc4e57146105d857600080fd5b8063313ce567146105165780633400288b146105385780633b6f743b1461055857600080fd5b8063134d4f25116102f257806318160ddd116102cc57806318160ddd146104a25780631d143848146104c15780631f5e1334146104e157806323b872dd146104f657600080fd5b8063134d4f2514610431578063156a0d0f1461045957806317442b701461048057600080fd5b806306fdde031461033a578063095ea7b3146103655780630d35b41514610395578063111ecdad146103c457806311479fea146103fc57806313137d651461041c575b600080fd5b34801561034657600080fd5b5061034f610ab9565b60405161035c9190612d9e565b60405180910390f35b34801561037157600080fd5b50610385610380366004612dc6565b610b4b565b604051901515815260200161035c565b3480156103a157600080fd5b506103b56103b0366004612e04565b610b65565b60405161035c93929190612e38565b3480156103d057600080fd5b506004546103e4906001600160a01b031681565b6040516001600160a01b03909116815260200161035c565b34801561040857600080fd5b50610385610417366004612ee2565b610c36565b61042f61042a366004612fa2565b611151565b005b34801561043d57600080fd5b50610446600281565b60405161ffff909116815260200161035c565b34801561046557600080fd5b506040805162b9270b60e21b8152600160208201520161035c565b34801561048c57600080fd5b506040805160018152600260208201520161035c565b3480156104ae57600080fd5b506007545b60405190815260200161035c565b3480156104cd57600080fd5b50600b546103e4906001600160a01b031681565b3480156104ed57600080fd5b50610446600181565b34801561050257600080fd5b50610385610511366004613041565b611211565b34801561052257600080fd5b5060125b60405160ff909116815260200161035c565b34801561054457600080fd5b5061042f61055336600461309b565b611237565b34801561056457600080fd5b506105786105733660046130c5565b61124d565b60405161035c9190613116565b34801561059157600080fd5b5061042f6105a0366004612dc6565b6112b4565b3480156105b157600080fd5b50306103e4565b3480156105c457600080fd5b5061034f6105d336600461313f565b6112c6565b3480156105e457600080fd5b5061042f6105f3366004613172565b61136b565b34801561060457600080fd5b5061038561061336600461309b565b63ffffffff919091166000908152600160205260409020541490565b34801561063b57600080fd5b506103e461064a36600461318f565b90565b34801561065957600080fd5b506103e47f000000000000000000000000000000000000000000000000000000000000000081565b34801561068d57600080fd5b506106a161069c3660046132b5565b611395565b604080516001600160a01b03909316835260208301919091520161035c565b3480156106cc57600080fd5b506104b3600c5481565b3480156106e257600080fd5b5061042f6106f1366004613172565b6113b5565b34801561070257600080fd5b506104b3610711366004613172565b6001600160a01b031660009081526005602052604090205490565b34801561073857600080fd5b5061042f6107473660046132e9565b611412565b34801561075857600080fd5b5061042f6114ca565b34801561076d57600080fd5b5061078461077c36600461309b565b600092915050565b6040516001600160401b03909116815260200161035c565b3480156107a857600080fd5b506103856107b7366004613351565b6114de565b3480156107c857600080fd5b506104b36107d7366004613172565b6001600160a01b031690565b3480156107ef57600080fd5b506006610526565b34801561080357600080fd5b506000546001600160a01b03166103e4565b34801561082157600080fd5b5061034f6114f3565b34801561083657600080fd5b506104b37f000000000000000000000000000000000000000000000000000000000000000081565b34801561086a57600080fd5b506000610385565b61042f6108803660046133be565b611502565b34801561089157600080fd5b506103856108a0366004612dc6565b6116df565b3480156108b157600080fd5b506002546103e4906001600160a01b031681565b3480156108d157600080fd5b5061042f6108e0366004613497565b6116ed565b3480156108f157600080fd5b506104b36109003660046134d8565b60016020526000908152604090205481565b34801561091e57600080fd5b5061034f61092d3660046134f3565b611707565b61042f610940366004613497565b6118af565b610958610953366004613553565b611a39565b60405161035c9291906135b5565b34801561097257600080fd5b5061042f610981366004613172565b611a6d565b61042f610994366004612fa2565b611aec565b3480156109a557600080fd5b5061042f6109b4366004613172565b611b1b565b3480156109c557600080fd5b506104b36109d4366004613607565b6001600160a01b03918216600090815260066020908152604080832093909416825291909152205490565b348015610a0b57600080fd5b50610a1f610a1a36600461318f565b611b71565b60405161035c9493929190613635565b348015610a3b57600080fd5b5061042f610a4a366004613172565b611cbe565b348015610a5b57600080fd5b5061034f610a6a366004612dc6565b604080516001600160a01b03939093166020840152828101919091528051808303820181526060909201905290565b348015610aa557600080fd5b50610385610ab4366004613683565b611cf9565b606060088054610ac89061369f565b80601f0160208091040260200160405190810160405280929190818152602001828054610af49061369f565b8015610b415780601f10610b1657610100808354040283529160200191610b41565b820191906000526020600020905b815481529060010190602001808311610b2457829003601f168201915b5050505050905090565b600033610b59818585611d2f565b60019150505b92915050565b60408051808201909152600080825260208201526060610b98604051806040016040528060008152602001600081525090565b60408051808201825260008082526001600160401b03602080840182905284518381529081019094529195509182610bf3565b604080518082019091526000815260606020820152815260200190600190039081610bcb5790505b509350600080610c18604089013560608a0135610c1360208c018c6134d8565b611d41565b60408051808201909152918252602082015296989597505050505050565b60006110f9565b7f30644e72e131a029b85045b68181585d2833e84879b9709143e1f593f00000018110610c6e576000805260206000f35b50565b600060405183815284602082015285604082015260408160608360076107d05a03fa915081610ca4576000805260206000f35b825160408201526020830151606082015260408360808360066107d05a03fa91505080610cd5576000805260206000f35b5050505050565b7f298d3c118ff027974d43438a3478d92db7506ef0d63b17ceb4e862aa58d7f66085527f09c958b6b0f840adc05d78e5118ea5ec973a386ef6c2978110c5b281911275bb602086015260006080860186610d7987357f2cc4766b33177533afa5d3a7ac6c2e49ae9a075629713a74d23273fff4eb3a3f7f0fccc0a7dcb8432f55f72e93f0793bfef549de9fe7b64572e27c60da4d856d5184610c71565b610dc960208801357f06afaa99af727c3da6b0d17b223b546644779a18910a64526467fc24c1edafd07f160887147d074a2cd86079d5b0aa67d9acd3013589241c773eeb722cc113e8c384610c71565b610e1960408801357f1c601ab348e0957ec47d60742b3623132a6942fdbf40b4cafbd00a76a9f6190d7f18f1410ca851358cd008755e688125fe6785ee0cec7434643feef4d789260e5284610c71565b50823581527f30644e72e131a029b85045b68181585d97816a916871ca8d3c208c16d87cfd4760208401357f30644e72e131a029b85045b68181585d97816a916871ca8d3c208c16d87cfd4703066020820152833560408201526020840135606082015260408401356080820152606084013560a08201527f1c4d6c06ba804e07232f4700dc5bed3b61b609c21d4809905e6214b236b2d3d860c08201527f23d402ce9ff2be1b3180009f18ade468571799c2879211e85ca5661cd182799060e08201527f1ce5d8e04423c089cd3dbdf3162577e96da6a36441374d6045c857fc5510a01f6101008201527f1b5aca63a7af819ee886908af713160bd9e29a361b77bf75e2b1fd65f8682b1f6101208201527f0d62b1b761d00b7567f5c13d4971829c08bb736fa72dbdebec03582d11c6d9f66101408201527f2c660253c05960f65a4a88360017b6736d4ee5845cbc5ec32ed529ec61b2eb44610160820152600087015161018082015260206000018701516101a08201527f198e9393920d483a7260bfb731fb5d25f1aa493335a9e71297e485b7aef312c26101c08201527f1800deef121f1e76426a00665e5c4479674322d4f75edadd46debd5cd992f6ed6101e08201527f090689d0585ff075ec9e99ad690c3395bc4b313370b38ef355acdadcd122975b6102008201527f12c85ea5db8c6deb4aab71808dcb408fe3d1e7690c43d37b4ce6cc0166fa7daa610220820152843561024082015260208501356102608201527f198e9393920d483a7260bfb731fb5d25f1aa493335a9e71297e485b7aef312c26102808201527f1800deef121f1e76426a00665e5c4479674322d4f75edadd46debd5cd992f6ed6102a08201527f090689d0585ff075ec9e99ad690c3395bc4b313370b38ef355acdadcd122975b6102c08201527f12c85ea5db8c6deb4aab71808dcb408fe3d1e7690c43d37b4ce6cc0166fa7daa6102e08201526020816103008360086107d05a03fa9051169695505050505050565b60405161038081016040526111116000840135610c3d565b61111e6020840135610c3d565b61112b6040840135610c3d565b6111386060840135610c3d565b611145818486888a610cdc565b90508060005260206000f35b7f00000000000000000000000000000000000000000000000000000000000000006001600160a01b031633146111a1576040516391ac5e4f60e01b81523360048201526024015b60405180910390fd5b602087018035906111bb906111b6908a6134d8565b611d7d565b146111f9576111cd60208801886134d8565b60405163309afaf360e21b815263ffffffff909116600482015260208801356024820152604401611198565b61120887878787878787611db9565b50505050505050565b60003361121f858285611f1d565b61122a858585611f9b565b60019150505b9392505050565b61123f611ffa565b6112498282612027565b5050565b6040805180820190915260008082526020820152600061127d60408501356060860135610c1360208801886134d8565b91505060008061128d868461207c565b90925090506112aa6112a260208801886134d8565b83838861219f565b9695505050505050565b6112bc611ffa565b6112498282612280565b6003602090815260009283526040808420909152908252902080546112ea9061369f565b80601f01602080910402602001604051908101604052809291908181526020018280546113169061369f565b80156113635780601f1061133857610100808354040283529160200191611363565b820191906000526020600020905b81548152906001019060200180831161134657829003601f168201915b505050505081565b611373611ffa565b600b80546001600160a01b0319166001600160a01b0392909216919091179055565b600080828060200190518101906113ac91906136d3565b91509150915091565b6113bd611ffa565b600480546001600160a01b0319166001600160a01b0383169081179091556040519081527ff0be4f1e87349231d80c36b33f9e8639658eeaf474014dee15a3e6a4d4414197906020015b60405180910390a150565b6000848152600a60205260409020546001600160a01b03163314611449576040516301d1074d60e11b815260040160405180910390fd5b6000848152600a6020526040902060028101611466848683613751565b50805464ffffffffff60a01b1916600160a01b64ffffffffff84160217815560405185907f59a8f8320a9aee8ded22d8399bea2e9df660259dd5fb45cebec2ebf4396a54ff906114bb90879087908790613839565b60405180910390a25050505050565b6114d2611ffa565b6114dc60006122b6565b565b6001600160a01b03811630145b949350505050565b606060098054610ac89061369f565b600b546001600160a01b0316331461152d57604051632d2e285f60e01b815260040160405180910390fd5b600b546001600160a01b031682602001351461155c5760405163418c5f7960e11b815260040160405180910390fd5b600c54826040013511156115835760405163214f7af360e21b815260040160405180910390fd5b60006040518060800160405280886001600160a01b03168152602001600064ffffffffff16815260200186868080601f016020809104026020016040519081016040528093929190818152602001838380828437600092018290525093855250506040805160208181018352848252948501528a8352600a845291829020845181549486015164ffffffffff16600160a01b026001600160c81b03199095166001600160a01b0390911617939093178355508201519192508291600182019061164c9082613864565b50606082015160028201906116619082613864565b5050600b54600c5461167f92506001600160a01b0390911690612280565b600b5461169890849084906001600160a01b0316612306565b5050857f1a37e283d75ab14040758410b746910d0a3af2873dd3689a60e25328e9bbba078887876040516116ce93929190613923565b60405180910390a250505050505050565b600033610b59818585611f9b565b6116f5611ffa565b6112496117028284613948565b612401565b63ffffffff8416600090815260036020908152604080832061ffff8716845290915281208054606092919061173b9061369f565b80601f01602080910402602001604051908101604052809291908181526020018280546117679061369f565b80156117b45780601f10611789576101008083540402835291602001916117b4565b820191906000526020600020905b81548152906001019060200180831161179757829003601f168201915b5050505050905080516000036118045783838080601f0160208091040260200160405190810160405280939291908181526020018383808284376000920191909152509294506114eb9350505050565b60008390036118145790506114eb565b600283106118925761185b84848080601f01602080910402602001604051908101604052809392919081815260200183838082843760009201919091525061250892505050565b806118698460028188613a1d565b60405160200161187b93929190613a47565b6040516020818303038152906040529150506114eb565b8383604051639a6d49cd60e01b8152600401611198929190613a6f565b60005b818110156119b857368383838181106118cd576118cd613a83565b90506020028101906118df9190613a99565b90506119126118f160208301836134d8565b602083013563ffffffff919091166000908152600160205260409020541490565b61191c57506119b0565b3063d045a0dc60c08301358360a081013561193b610100830183613aba565b61194c610100890160e08a01613172565b61195a6101208a018a613aba565b6040518963ffffffff1660e01b815260040161197c9796959493929190613b15565b6000604051808303818588803b15801561199557600080fd5b505af11580156119a9573d6000803e3d6000fd5b5050505050505b6001016118b2565b50336001600160a01b0316638e9e70996040518163ffffffff1660e01b8152600401600060405180830381865afa1580156119f7573d6000803e3d6000fd5b505050506040513d6000823e601f3d908101601f19168201604052611a1f9190810190613b9b565b604051638351eea760e01b81526004016111989190612d9e565b611a41612d07565b6040805180820190915260008082526020820152611a60858585612306565b915091505b935093915050565b611a75611ffa565b60405163ca5eb5e160e01b81526001600160a01b0382811660048301527f0000000000000000000000000000000000000000000000000000000000000000169063ca5eb5e190602401600060405180830381600087803b158015611ad857600080fd5b505af1158015610cd5573d6000803e3d6000fd5b333014611b0c5760405163029a949d60e31b815260040160405180910390fd5b611208878787878787876111f9565b611b23611ffa565b600280546001600160a01b0319166001600160a01b0383169081179091556040519081527fd48d879cef83a1c0bdda516f27b13ddb1b3f8bbac1c9e1511bb2a659c242776090602001611407565b600a60205260009081526040902080546001820180546001600160a01b03831693600160a01b90930464ffffffffff16929190611bad9061369f565b80601f0160208091040260200160405190810160405280929190818152602001828054611bd99061369f565b8015611c265780601f10611bfb57610100808354040283529160200191611c26565b820191906000526020600020905b815481529060010190602001808311611c0957829003601f168201915b505050505090806002018054611c3b9061369f565b80601f0160208091040260200160405190810160405280929190818152602001828054611c679061369f565b8015611cb45780601f10611c8957610100808354040283529160200191611cb4565b820191906000526020600020905b815481529060010190602001808311611c9757829003601f168201915b5050505050905084565b611cc6611ffa565b6001600160a01b038116611cf057604051631e4fbdf760e01b815260006004820152602401611198565b610c6e816122b6565b6000602082018035906001908390611d1190866134d8565b63ffffffff1681526020810191909152604001600020541492915050565b611d3c8383836001612534565b505050565b600080611d4d85612609565b915081905083811015611a65576040516371c4efed60e01b81526004810182905260248101859052604401611198565b63ffffffff811660009081526001602052604081205480610b5f5760405163f6ff4fb760e01b815263ffffffff84166004820152602401611198565b6000611dc861064a8787612640565b90506000611df482611de2611ddd8a8a612658565b61267b565b611def60208d018d6134d8565b6126b0565b90506028861115611ebb576000611e31611e1460608c0160408d01613c08565b611e2160208d018d6134d8565b84611e2c8c8c6126d8565b612723565b604051633e5ac80960e11b81529091506001600160a01b037f00000000000000000000000000000000000000000000000000000000000000001690637cb5901290611e879086908d906000908790600401613c25565b600060405180830381600087803b158015611ea157600080fd5b505af1158015611eb5573d6000803e3d6000fd5b50505050505b6001600160a01b038216887fefed6d3500546b29533b128a29e3a94d70788727f0507505ac12eaf2e578fd9c611ef460208d018d6134d8565b6040805163ffffffff9092168252602082018690520160405180910390a3505050505050505050565b6001600160a01b038381166000908152600660209081526040808320938616835292905220546000198114611f955781811015611f8657604051637dc7a0d960e11b81526001600160a01b03841660048201526024810182905260448101839052606401611198565b611f9584848484036000612534565b50505050565b6001600160a01b038316611fc557604051634b637e8f60e11b815260006004820152602401611198565b6001600160a01b038216611fef5760405163ec442f0560e01b815260006004820152602401611198565b611d3c838383612755565b6000546001600160a01b031633146114dc5760405163118cdaa760e01b8152336004820152602401611198565b63ffffffff8216600081815260016020908152604091829020849055815192835282018390527f238399d427b947898edb290f5ff0f9109849b1c3ba196a42e35f00c50a54b98b910160405180910390a15050565b60608060006120d985602001356120928661287f565b61209f60a0890189613aba565b8080601f0160208091040260200160405190810160405280939291908181526020018383808284376000920191909152506128ab92505050565b90935090506000816120ec5760016120ef565b60025b905061210f61210160208801886134d8565b8261092d60808a018a613aba565b6004549093506001600160a01b031680156121955760405163043a78eb60e01b81526001600160a01b0382169063043a78eb906121529088908890600401613c56565b602060405180830381865afa15801561216f573d6000803e3d6000fd5b505050506040513d601f19601f820116820180604052508101906121939190613c7b565b505b5050509250929050565b60408051808201909152600080825260208201527f00000000000000000000000000000000000000000000000000000000000000006001600160a01b031663ddc28c586040518060a001604052808863ffffffff16815260200161220289611d7d565b8152602001878152602001868152602001851515815250306040518363ffffffff1660e01b8152600401612237929190613c98565b6040805180830381865afa158015612253573d6000803e3d6000fd5b505050506040513d601f19601f820116820180604052508101906122779190613d41565b95945050505050565b6001600160a01b0382166122aa5760405163ec442f0560e01b815260006004820152602401611198565b61124960008383612755565b600080546001600160a01b038381166001600160a01b0319831681178455604051919092169283917f8be0079c531659141344cd1fd0a4f28419497f9722a3daafe3b4186f6b6457e09190a35050565b61230e612d07565b604080518082019091526000808252602082015260008061234533604089013560608a013561234060208c018c6134d8565b612925565b91509150600080612356898461207c565b909250905061238261236b60208b018b6134d8565b838361237c368d90038d018d613d5d565b8b61294b565b60408051808201909152858152602080820186905282519298509096503391907f85496b760a4b7f8d66384b9df21b381f5d1b1e79f229a47aaf4c232edc2fe59a906123d0908d018d6134d8565b6040805163ffffffff909216825260208201899052810187905260600160405180910390a350505050935093915050565b60005b81518110156124d85761243382828151811061242257612422613a83565b602002602001015160400151612508565b81818151811061244557612445613a83565b6020026020010151604001516003600084848151811061246757612467613a83565b60200260200101516000015163ffffffff1663ffffffff16815260200190815260200160002060008484815181106124a1576124a1613a83565b60200260200101516020015161ffff1661ffff16815260200190815260200160002090816124cf9190613864565b50600101612404565b507fbe4864a8e820971c0247f5992e2da559595f7bf076a21cb5928d443d2a13b674816040516114079190613d8f565b600281015161ffff81166003146112495781604051639a6d49cd60e01b81526004016111989190612d9e565b6001600160a01b03841661255e5760405163e602df0560e01b815260006004820152602401611198565b6001600160a01b03831661258857604051634a1406b160e11b815260006004820152602401611198565b6001600160a01b0380851660009081526006602090815260408083209387168352929052208290558015611f9557826001600160a01b0316846001600160a01b03167f8c5be1e5ebec7d5bd14f71427d1e84f3dd0314c0f7b2291e5b200ac8c7c3b925846040516125fb91815260200190565b60405180910390a350505050565b60007f00000000000000000000000000000000000000000000000000000000000000006126368184613e30565b610b5f9190613e52565b600061264f6020828486613a1d565b61123091613e69565b6000612668602860208486613a1d565b61267191613e87565b60c01c9392505050565b6000610b5f7f00000000000000000000000000000000000000000000000000000000000000006001600160401b038416613e52565b60006001600160a01b0384166126c65761dead93505b6126d08484612280565b509092915050565b60606126e78260288186613a1d565b8080601f016020809104026020016040519081016040528093929190818152602001838380828437600092019190915250929695505050505050565b60608484848460405160200161273c9493929190613eb7565b6040516020818303038152906040529050949350505050565b6001600160a01b0383166127805780600760008282546127759190613f06565b909155506127f29050565b6001600160a01b038316600090815260056020526040902054818110156127d35760405163391434e360e21b81526001600160a01b03851660048201526024810182905260448101839052606401611198565b6001600160a01b03841660009081526005602052604090209082900390555b6001600160a01b03821661280e5760078054829003905561282d565b6001600160a01b03821660009081526005602052604090208054820190555b816001600160a01b0316836001600160a01b03167fddf252ad1be2c89b69c2b068fc378daa952ba7f163c4a11628f55a4df523b3ef8360405161287291815260200190565b60405180910390a3505050565b6000610b5f7f000000000000000000000000000000000000000000000000000000000000000083613e30565b80516060901515806128f45784846040516020016128e092919091825260c01b6001600160c01b031916602082015260280190565b60405160208183030381529060405261291b565b8484338560405160200161290b9493929190613f19565b6040516020818303038152906040525b9150935093915050565b600080612933858585611d41565b90925090506129428683612a44565b94509492505050565b612953612d07565b825161295e90612a7a565b50602083015115612976576129768360200151612b63565b7f00000000000000000000000000000000000000000000000000000000000000006001600160a01b0316632637a4506040518060a001604052808963ffffffff1681526020016129c58a611d7d565b815260200188815260200187815260200160008760200151111515815250846040518363ffffffff1660e01b8152600401612a01929190613c98565b6080604051808303816000875af1158015612a20573d6000803e3d6000fd5b505050506040513d601f19601f820116820180604052508101906112aa9190613f5c565b6001600160a01b038216612a6e57604051634b637e8f60e11b815260006004820152602401611198565b61124982600083612755565b6000807f00000000000000000000000000000000000000000000000000000000000000006001600160a01b031663e1758bd86040518163ffffffff1660e01b8152600401602060405180830381865afa158015612adb573d6000803e3d6000fd5b505050506040513d601f19601f82011682018060405250810190612aff9190613fa6565b90506001600160a01b038116612b2857604051631f41d79160e01b815260040160405180910390fd5b612b5d6001600160a01b038216337f000000000000000000000000000000000000000000000000000000000000000086612c41565b50919050565b60007f00000000000000000000000000000000000000000000000000000000000000006001600160a01b031663e4fe1d946040518163ffffffff1660e01b8152600401602060405180830381865afa158015612bc3573d6000803e3d6000fd5b505050506040513d601f19601f82011682018060405250810190612be79190613fa6565b90506001600160a01b038116612c10576040516329b99a9560e11b815260040160405180910390fd5b6112496001600160a01b038216337f0000000000000000000000000000000000000000000000000000000000000000855b604080516001600160a01b038581166024830152841660448201526064808201849052825180830390910181526084909101909152602080820180516001600160e01b03166323b872dd60e01b1781528251611f95938893909260009283929183919082885af180612cb9576040513d6000823e3d81fd5b50506000513d91508115612cd1578060011415612cde565b6001600160a01b0384163b155b15611f9557604051635274afe760e01b81526001600160a01b0385166004820152602401611198565b60405180606001604052806000801916815260200160006001600160401b03168152602001612d49604051806040016040528060008152602001600081525090565b905290565b60005b83811015612d69578181015183820152602001612d51565b50506000910152565b60008151808452612d8a816020860160208601612d4e565b601f01601f19169290920160200192915050565b6020815260006112306020830184612d72565b6001600160a01b0381168114610c6e57600080fd5b60008060408385031215612dd957600080fd5b8235612de481612db1565b946020939093013593505050565b600060e08284031215612b5d57600080fd5b600060208284031215612e1657600080fd5b81356001600160401b03811115612e2c57600080fd5b6114eb84828501612df2565b8351815260208085015190820152600060a08201604060a0604085015281865180845260c08601915060c08160051b8701019350602080890160005b83811015612eb35788870360bf19018552815180518852830151838801879052612ea087890182612d72565b9750509382019390820190600101612e74565b505087516060880152505050602085015160808501525090506114eb565b8060408101831015610b5f57600080fd5b600080600080610160808688031215612efa57600080fd5b612f048787612ed1565b945060c0860187811115612f1757600080fd5b604087019450612f278882612ed1565b935050868187011115612f3957600080fd5b50929591945092610100019150565b600060608284031215612b5d57600080fd5b60008083601f840112612f6c57600080fd5b5081356001600160401b03811115612f8357600080fd5b602083019150836020828501011115612f9b57600080fd5b9250929050565b600080600080600080600060e0888a031215612fbd57600080fd5b612fc78989612f48565b96506060880135955060808801356001600160401b0380821115612fea57600080fd5b612ff68b838c01612f5a565b909750955060a08a0135915061300b82612db1565b90935060c0890135908082111561302157600080fd5b5061302e8a828b01612f5a565b989b979a50959850939692959293505050565b60008060006060848603121561305657600080fd5b833561306181612db1565b9250602084013561307181612db1565b929592945050506040919091013590565b803563ffffffff8116811461309657600080fd5b919050565b600080604083850312156130ae57600080fd5b612de483613082565b8015158114610c6e57600080fd5b600080604083850312156130d857600080fd5b82356001600160401b038111156130ee57600080fd5b6130fa85828601612df2565b925050602083013561310b816130b7565b809150509250929050565b815181526020808301519082015260408101610b5f565b803561ffff8116811461309657600080fd5b6000806040838503121561315257600080fd5b61315b83613082565b91506131696020840161312d565b90509250929050565b60006020828403121561318457600080fd5b813561123081612db1565b6000602082840312156131a157600080fd5b5035919050565b634e487b7160e01b600052604160045260246000fd5b604051606081016001600160401b03811182821017156131e0576131e06131a8565b60405290565b604080519081016001600160401b03811182821017156131e0576131e06131a8565b604051601f8201601f191681016001600160401b0381118282101715613230576132306131a8565b604052919050565b60006001600160401b03821115613251576132516131a8565b50601f01601f191660200190565b600082601f83011261327057600080fd5b813561328361327e82613238565b613208565b81815284602083860101111561329857600080fd5b816020850160208301376000918101602001919091529392505050565b6000602082840312156132c757600080fd5b81356001600160401b038111156132dd57600080fd5b6114eb8482850161325f565b600080600080606085870312156132ff57600080fd5b8435935060208501356001600160401b0381111561331c57600080fd5b61332887828801612f5a565b909450925050604085013564ffffffffff8116811461334657600080fd5b939692955090935050565b60008060008060a0858703121561336757600080fd5b6133718686612f48565b935060608501356001600160401b0381111561338c57600080fd5b61339887828801612f5a565b909450925050608085013561334681612db1565b600060408284031215612b5d57600080fd5b60008060008060008060c087890312156133d757600080fd5b86356133e281612db1565b95506020870135945060408701356001600160401b038082111561340557600080fd5b6134118a838b01612f5a565b9096509450606089013591508082111561342a57600080fd5b5061343789828a01612df2565b92505061344788608089016133ac565b90509295509295509295565b60008083601f84011261346557600080fd5b5081356001600160401b0381111561347c57600080fd5b6020830191508360208260051b8501011115612f9b57600080fd5b600080602083850312156134aa57600080fd5b82356001600160401b038111156134c057600080fd5b6134cc85828601613453565b90969095509350505050565b6000602082840312156134ea57600080fd5b61123082613082565b6000806000806060858703121561350957600080fd5b61351285613082565b93506135206020860161312d565b925060408501356001600160401b0381111561353b57600080fd5b61354787828801612f5a565b95989497509550505050565b60008060006080848603121561356857600080fd5b83356001600160401b0381111561357e57600080fd5b61358a86828701612df2565b93505061359a85602086016133ac565b915060608401356135aa81612db1565b809150509250925092565b600060c082019050835182526001600160401b03602085015116602083015260408401516135f0604084018280518252602090810151910152565b5082516080830152602083015160a0830152611230565b6000806040838503121561361a57600080fd5b823561362581612db1565b9150602083013561310b81612db1565b6001600160a01b038516815264ffffffffff8416602082015260806040820181905260009061366690830185612d72565b82810360608401526136788185612d72565b979650505050505050565b60006060828403121561369557600080fd5b6112308383612f48565b600181811c908216806136b357607f821691505b602082108103612b5d57634e487b7160e01b600052602260045260246000fd5b600080604083850312156136e657600080fd5b82516136f181612db1565b6020939093015192949293505050565b601f821115611d3c576000816000526020600020601f850160051c8101602086101561372a5750805b601f850160051c820191505b8181101561374957828155600101613736565b505050505050565b6001600160401b03831115613768576137686131a8565b61377c83613776835461369f565b83613701565b6000601f8411600181146137b057600085156137985750838201355b600019600387901b1c1916600186901b178355610cd5565b600083815260209020601f19861690835b828110156137e157868501358255602094850194600190920191016137c1565b50868210156137fe5760001960f88860031b161c19848701351681555b505060018560011b0183555050505050565b81835281816020850137506000828201602090810191909152601f909101601f19169091010190565b60408152600061384d604083018587613810565b905064ffffffffff83166020830152949350505050565b81516001600160401b0381111561387d5761387d6131a8565b6138918161388b845461369f565b84613701565b602080601f8311600181146138c657600084156138ae5750858301515b600019600386901b1c1916600185901b178555613749565b600085815260208120601f198616915b828110156138f5578886015182559484019460019091019084016138d6565b50858210156139135787850151600019600388901b60f8161c191681555b5050505050600190811b01905550565b6001600160a01b03841681526040602082018190526000906122779083018486613810565b60006001600160401b0380841115613962576139626131a8565b8360051b6020613973818301613208565b86815291850191818101903684111561398b57600080fd5b865b84811015613a11578035868111156139a55760008081fd5b880160603682900312156139b95760008081fd5b6139c16131be565b6139ca82613082565b81526139d786830161312d565b86820152604080830135898111156139ef5760008081fd5b6139fb3682860161325f565b918301919091525084525091830191830161398d565b50979650505050505050565b60008085851115613a2d57600080fd5b83861115613a3a57600080fd5b5050820193919092039150565b60008451613a59818460208901612d4e565b8201838582376000930192835250909392505050565b6020815260006114eb602083018486613810565b634e487b7160e01b600052603260045260246000fd5b6000823561013e19833603018112613ab057600080fd5b9190910192915050565b6000808335601e19843603018112613ad157600080fd5b8301803591506001600160401b03821115613aeb57600080fd5b602001915036819003821315612f9b57600080fd5b6001600160401b0381168114610c6e57600080fd5b63ffffffff613b2389613082565b1681526020880135602082015260006040890135613b4081613b00565b6001600160401b03811660408401525087606083015260e06080830152613b6b60e083018789613810565b6001600160a01b03861660a084015282810360c0840152613b8d818587613810565b9a9950505050505050505050565b600060208284031215613bad57600080fd5b81516001600160401b03811115613bc357600080fd5b8201601f81018413613bd457600080fd5b8051613be261327e82613238565b818152856020838501011115613bf757600080fd5b612277826020830160208601612d4e565b600060208284031215613c1a57600080fd5b813561123081613b00565b60018060a01b038516815283602082015261ffff831660408201526080606082015260006112aa6080830184612d72565b604081526000613c696040830185612d72565b82810360208401526122778185612d72565b600060208284031215613c8d57600080fd5b8151611230816130b7565b6040815263ffffffff8351166040820152602083015160608201526000604084015160a06080840152613cce60e0840182612d72565b90506060850151603f198483030160a0850152613ceb8282612d72565b60809690960151151560c08501525050506001600160a01b039190911660209091015290565b600060408284031215613d2357600080fd5b613d2b6131e6565b9050815181526020820151602082015292915050565b600060408284031215613d5357600080fd5b6112308383613d11565b600060408284031215613d6f57600080fd5b613d776131e6565b82358152602083013560208201528091505092915050565b600060208083018184528085518083526040925060408601915060408160051b87010184880160005b83811015613e0c57888303603f190185528151805163ffffffff1684528781015161ffff16888501528601516060878501819052613df881860183612d72565b968901969450505090860190600101613db8565b509098975050505050505050565b634e487b7160e01b600052601160045260246000fd5b600082613e4d57634e487b7160e01b600052601260045260246000fd5b500490565b8082028115828204841417610b5f57610b5f613e1a565b80356020831015610b5f57600019602084900360031b1b1692915050565b6001600160c01b03198135818116916008851015613eaf5780818660080360031b1b83161692505b505092915050565b6001600160401b0360c01b8560c01b16815263ffffffff60e01b8460e01b16600882015282600c82015260008251613ef681602c850160208701612d4e565b91909101602c0195945050505050565b80820180821115610b5f57610b5f613e1a565b8481526001600160401b0360c01b8460c01b16602082015282602882015260008251613f4c816048850160208701612d4e565b9190910160480195945050505050565b600060808284031215613f6e57600080fd5b613f766131be565b825181526020830151613f8881613b00565b6020820152613f9a8460408501613d11565b60408201529392505050565b600060208284031215613fb857600080fd5b815161123081612db156fea164736f6c6343000816000a",
  "devdoc": {
    "errors": {
      "ERC20InsufficientAllowance(address,uint256,uint256)": [
        {
          "details": "Indicates a failure with the `spender`s `allowance`. Used in transfers.",
          "params": {
            "allowance": "Amount of tokens a `spender` is allowed to operate with.",
            "needed": "Minimum amount required to perform a transfer.",
            "spender": "Address that may be allowed to operate on tokens without being their owner."
          }
        }
      ],
      "ERC20InsufficientBalance(address,uint256,uint256)": [
        {
          "details": "Indicates an error related to the current `balance` of a `sender`. Used in transfers.",
          "params": {
            "balance": "Current balance for the interacting account.",
            "needed": "Minimum amount required to perform a transfer.",
            "sender": "Address whose tokens are being transferred."
          }
        }
      ],
      "ERC20InvalidApprover(address)": [
        {
          "details": "Indicates a failure with the `approver` of a token to be approved. Used in approvals.",
          "params": {
            "approver": "Address initiating an approval operation."
          }
        }
      ],
      "ERC20InvalidReceiver(address)": [
        {
          "details": "Indicates a failure with the token `receiver`. Used in transfers.",
          "params": {
            "receiver": "Address to which tokens are being transferred."
          }
        }
      ],
      "ERC20InvalidSender(address)": [
        {
          "details": "Indicates a failure with the token `sender`. Used in transfers.",
          "params": {
            "sender": "Address whose tokens are being transferred."
          }
        }
      ],
      "ERC20InvalidSpender(address)": [
        {
          "details": "Indicates a failure with the `spender` to be approved. Used in approvals.",
          "params": {
            "spender": "Address that may be allowed to operate on tokens without being their owner."
          }
        }
      ],
      "OwnableInvalidOwner(address)": [
        {
          "details": "The owner is not a valid owner account. (eg. `address(0)`)"
        }
      ],
      "OwnableUnauthorizedAccount(address)": [
        {
          "details": "The caller account is not authorized to perform an operation."
        }
      ],
      "SafeERC20FailedOperation(address)": [
        {
          "details": "An operation with an ERC-20 token failed."
        }
      ]
    },
    "events": {
      "Approval(address,address,uint256)": {
        "details": "Emitted when the allowance of a `spender` for an `owner` is set by a call to {approve}. `value` is the new allowance."
      },
      "PreCrimeSet(address)": {
        "details": "Emitted when the preCrime contract address is set.",
        "params": {
          "preCrimeAddress": "The address of the preCrime contract."
        }
      },
      "Transfer(address,address,uint256)": {
        "details": "Emitted when `value` tokens are moved from one account (`from`) to another (`to`). Note that `value` may be zero."
      }
    },
    "kind": "dev",
    "methods": {
      "addressToBytes32(address)": {
        "details": "Converts an address to bytes32.",
        "params": {
          "_addr": "The address to convert."
        },
        "returns": {
          "_0": "The bytes32 representation of the address."
        }
      },
      "allowInitializePath((uint32,bytes32,uint64))": {
        "details": "This indicates to the endpoint that the OApp has enabled msgs for this particular path to be received.This defaults to assuming if a peer has been set, its initialized. Can be overridden by the OApp if there is other logic to determine this.",
        "params": {
          "origin": "The origin information containing the source endpoint and sender address."
        },
        "returns": {
          "_0": "Whether the path has been initialized."
        }
      },
      "allowance(address,address)": {
        "details": "See {IERC20-allowance}."
      },
      "approvalRequired()": {
        "details": "In the case of OFT where the contract IS the token, approval is NOT required.",
        "returns": {
          "_0": "requiresApproval Needs approval of the underlying token implementation."
        }
      },
      "approve(address,uint256)": {
        "details": "See {IERC20-approve}. NOTE: If `value` is the maximum `uint256`, the allowance is not updated on `transferFrom`. This is semantically equivalent to an infinite approval. Requirements: - `spender` cannot be the zero address."
      },
      "balanceOf(address)": {
        "details": "See {IERC20-balanceOf}."
      },
      "bytes32ToAddress(bytes32)": {
        "details": "Converts bytes32 to an address.",
        "params": {
          "_b": "The bytes32 value to convert."
        },
        "returns": {
          "_0": "The address representation of bytes32."
        }
      },
      "combineOptions(uint32,uint16,bytes)": {
        "details": "If there is an enforced lzReceive option: - {gasLimit: 200k, msg.value: 1 ether} AND a caller supplies a lzReceive option: {gasLimit: 100k, msg.value: 0.5 ether} - The resulting options will be {gasLimit: 300k, msg.value: 1.5 ether} when the message is executed on the remote lzReceive() function.This presence of duplicated options is handled off-chain in the verifier/executor.",
        "params": {
          "_eid": "The endpoint ID.",
          "_extraOptions": "Additional options passed by the caller.",
          "_msgType": "The OAPP message type."
        },
        "returns": {
          "_0": "options The combination of caller specified options AND enforced options."
        }
      },
      "decimals()": {
        "details": "Returns the number of decimals used to get its user representation. For example, if `decimals` equals `2`, a balance of `505` tokens should be displayed to a user as `5.05` (`505 / 10 ** 2`). Tokens usually opt for a value of 18, imitating the relationship between Ether and Wei. This is the default value returned by this function, unless it's overridden. NOTE: This information is only used for _display_ purposes: it in no way affects any of the arithmetic of the contract, including {IERC20-balanceOf} and {IERC20-transfer}."
      },
      "isComposeMsgSender((uint32,bytes32,uint64),bytes,address)": {
        "details": "_origin The origin information containing the source endpoint and sender address.  - srcEid: The source chain endpoint ID.  - sender: The sender address on the src chain.  - nonce: The nonce of the message._message The lzReceive payload.Applications can optionally choose to implement separate composeMsg senders that are NOT the bridging layer.The default sender IS the OAppReceiver implementer.",
        "params": {
          "_sender": "The sender address."
        },
        "returns": {
          "_0": "isSender Is a valid sender."
        }
      },
      "isPeer(uint32,bytes32)": {
        "details": "Check if the peer is considered 'trusted' by the OApp.Enables OAppPreCrimeSimulator to check whether a potential Inbound Packet is from a trusted source.",
        "params": {
          "_eid": "The endpoint ID to check.",
          "_peer": "The peer to check."
        },
        "returns": {
          "_0": "Whether the peer passed is considered 'trusted' by the OApp."
        }
      },
      "lzReceive((uint32,bytes32,uint64),bytes32,bytes,address,bytes)": {
        "details": "Entry point for receiving messages or packets from the endpoint.Entry point for receiving msg/packet from the LayerZero endpoint.",
        "params": {
          "_executor": "The address of the executor for the received message.",
          "_extraData": "Additional arbitrary data provided by the corresponding executor.",
          "_guid": "The unique identifier for the received LayerZero message.",
          "_message": "The payload of the received message.",
          "_origin": "The origin information containing the source endpoint and sender address.  - srcEid: The source chain endpoint ID.  - sender: The sender address on the src chain.  - nonce: The nonce of the message."
        }
      },
      "lzReceiveAndRevert(((uint32,bytes32,uint64),uint32,address,bytes32,uint256,address,bytes,bytes)[])": {
        "details": "Interface for pre-crime simulations. Always reverts at the end with the simulation results.WARNING: MUST revert at the end with the simulation results.Gives the preCrime implementation the ability to mock sending packets to the lzReceive function, WITHOUT actually executing them.",
        "params": {
          "_packets": "An array of InboundPacket objects representing received packets to be delivered."
        }
      },
      "lzReceiveSimulate((uint32,bytes32,uint64),bytes32,bytes,address,bytes)": {
        "details": "Is effectively an internal function because msg.sender must be address(this). Allows resetting the call stack for 'internal' calls.",
        "params": {
          "_executor": "The executor address for the packet.",
          "_extraData": "Additional data for the packet.",
          "_guid": "The unique identifier of the packet.",
          "_message": "The message payload of the packet.",
          "_origin": "The origin information containing the source endpoint and sender address.  - srcEid: The source chain endpoint ID.  - sender: The sender address on the src chain.  - nonce: The nonce of the message."
        }
      },
      "name()": {
        "details": "Returns the name of the token."
      },
      "nextNonce(uint32,bytes32)": {
        "details": "_srcEid The source endpoint ID._sender The sender address.The path nonce starts from 1. If 0 is returned it means that there is NO nonce ordered enforcement.Is required by the off-chain executor to determine the OApp expects msg execution is ordered.This is also enforced by the OApp.By default this is NOT enabled. ie. nextNonce is hardcoded to return 0.",
        "returns": {
          "nonce": "The next nonce."
        }
      },
      "oApp()": {
        "details": "Retrieves the address of the OApp contract.The simulator contract is the base contract for the OApp by default.If the simulator is a separate contract, override this function.",
        "returns": {
          "_0": "The address of the OApp contract."
        }
      },
      "oAppVersion()": {
        "returns": {
          "receiverVersion": "The version of the OAppReceiver.sol implementation.",
          "senderVersion": "The version of the OAppSender.sol implementation."
        }
      },
      "oftVersion()": {
        "details": "interfaceId: This specific interface ID is '0x02e49c2c'.version: Indicates a cross-chain compatible msg encoding with other OFTs.If a new feature is added to the OFT cross-chain msg encoding, the version will be incremented. ie. localOFT version(x,1) CAN send messages to remoteOFT version(x,1)",
        "returns": {
          "interfaceId": "The interface ID.",
          "version": "The version."
        }
      },
      "owner()": {
        "details": "Returns the address of the current owner."
      },
      "quoteOFT((uint32,bytes32,uint256,uint256,bytes,bytes,bytes))": {
        "params": {
          "_sendParam": "The parameters for the send operation."
        },
        "returns": {
          "oftFeeDetails": "The details of OFT fees.",
          "oftLimit": "The OFT limit information.",
          "oftReceipt": "The OFT receipt information."
        }
      },
      "quoteSend((uint32,bytes32,uint256,uint256,bytes,bytes,bytes),bool)": {
        "details": "MessagingFee: LayerZero msg fee  - nativeFee: The native fee.  - lzTokenFee: The lzToken fee.",
        "params": {
          "_payInLzToken": "Flag indicating whether the caller is paying in the LZ token.",
          "_sendParam": "The parameters for the send() operation."
        },
        "returns": {
          "msgFee": "The calculated LayerZero messaging fee from the send() operation."
        }
      },
      "renounceOwnership()": {
        "details": "Leaves the contract without owner. It will not be possible to call `onlyOwner` functions. Can only be called by the current owner. NOTE: Renouncing ownership will leave the contract without an owner, thereby disabling any functionality that is only available to the owner."
      },
      "send((uint32,bytes32,uint256,uint256,bytes,bytes,bytes),(uint256,uint256),address)": {
        "details": "Executes the send operation.MessagingReceipt: LayerZero msg receipt  - guid: The unique identifier for the sent message.  - nonce: The nonce of the sent message.  - fee: The LayerZero fee incurred for the message.",
        "params": {
          "_fee": "The calculated fee for the send() operation.      - nativeFee: The native fee.      - lzTokenFee: The lzToken fee.",
          "_refundAddress": "The address to receive any excess funds.",
          "_sendParam": "The parameters for the send operation."
        },
        "returns": {
          "msgReceipt": "The receipt for the send operation.",
          "oftReceipt": "The OFT receipt information."
        }
      },
      "setDelegate(address)": {
        "details": "Only the owner/admin of the OApp can call this function.Provides the ability for a delegate to set configs, on behalf of the OApp, directly on the Endpoint contract.",
        "params": {
          "_delegate": "The address of the delegate to be set."
        }
      },
      "setEnforcedOptions((uint32,uint16,bytes)[])": {
        "details": "Sets the enforced options for specific endpoint and message type combinations.Only the owner/admin of the OApp can call this function.Provides a way for the OApp to enforce things like paying for PreCrime, AND/OR minimum dst lzReceive gas amounts etc.These enforced options can vary as the potential options/execution on the remote may differ as per the msgType. eg. Amount of lzReceive() gas necessary to deliver a lzCompose() message adds overhead you dont want to pay if you are only making a standard LayerZero message ie. lzReceive() WITHOUT sendCompose().",
        "params": {
          "_enforcedOptions": "An array of EnforcedOptionParam structures specifying enforced options."
        }
      },
      "setMsgInspector(address)": {
        "details": "Sets the message inspector address for the OFT.This is an optional contract that can be used to inspect both 'message' and 'options'.Set it to address(0) to disable it, or set it to a contract address to enable it.",
        "params": {
          "_msgInspector": "The address of the message inspector."
        }
      },
      "setPeer(uint32,bytes32)": {
        "details": "Only the owner/admin of the OApp can call this function.Indicates that the peer is trusted to send LayerZero messages to this OApp.Set this to bytes32(0) to remove the peer address.Peer is a bytes32 to accommodate non-evm chains.",
        "params": {
          "_eid": "The endpoint ID.",
          "_peer": "The address of the peer to be associated with the corresponding endpoint."
        }
      },
      "setPreCrime(address)": {
        "details": "Sets the preCrime contract address.",
        "params": {
          "_preCrime": "The address of the preCrime contract."
        }
      },
      "sharedDecimals()": {
        "details": "Retrieves the shared decimals of the OFT.Sets an implicit cap on the amount of tokens, over uint64.max() will need some sort of outbound cap / totalSupply cap Lowest common decimal denominator between chains. Defaults to 6 decimal places to provide up to 18,446,744,073,709.551615 units (max uint64). For tokens exceeding this totalSupply(), they will need to override the sharedDecimals function with something smaller. ie. 4 sharedDecimals would be 1,844,674,407,370,955.1615",
        "returns": {
          "_0": "The shared decimals of the OFT."
        }
      },
      "symbol()": {
        "details": "Returns the symbol of the token, usually a shorter version of the name."
      },
      "token()": {
        "details": "Retrieves the address of the underlying ERC20 implementation.In the case of OFT, address(this) and erc20 are the same contract.",
        "returns": {
          "_0": "The address of the OFT token."
        }
      },
      "totalSupply()": {
        "details": "See {IERC20-totalSupply}."
      },
      "transfer(address,uint256)": {
        "details": "See {IERC20-transfer}. Requirements: - `to` cannot be the zero address. - the caller must have a balance of at least `value`."
      },
      "transferFrom(address,address,uint256)": {
        "details": "See {IERC20-transferFrom}. Skips emitting an {Approval} event indicating an allowance update. This is not required by the ERC. See {xref-ERC20-_approve-address-address-uint256-bool-}[_approve]. NOTE: Does not update the allowance if the current allowance is the maximum `uint256`. Requirements: - `from` and `to` cannot be the zero address. - `from` must have a balance of at least `value`. - the caller must have allowance for ``from``'s tokens of at least `value`."
      },
      "transferOwnership(address)": {
        "details": "Transfers ownership of the contract to a new account (`newOwner`). Can only be called by the current owner."
      }
    },
    "version": 1
  },
  "userdoc": {
    "kind": "user",
    "methods": {
      "allowInitializePath((uint32,bytes32,uint64))": {
        "notice": "Checks if the path initialization is allowed based on the provided origin."
      },
      "approvalRequired()": {
        "notice": "Indicates whether the OFT contract requires approval of the 'token()' to send."
      },
      "combineOptions(uint32,uint16,bytes)": {
        "notice": "Combines options for a given endpoint and message type."
      },
      "endpoint()": {
        "notice": "Retrieves the LayerZero endpoint associated with the OApp."
      },
      "isComposeMsgSender((uint32,bytes32,uint64),bytes,address)": {
        "notice": "Indicates whether an address is an approved composeMsg sender to the Endpoint."
      },
      "nextNonce(uint32,bytes32)": {
        "notice": "Retrieves the next nonce for a given source endpoint and sender address."
      },
      "oAppVersion()": {
        "notice": "Retrieves the OApp version information."
      },
      "oftVersion()": {
        "notice": "Retrieves interfaceID and the version of the OFT."
      },
      "peers(uint32)": {
        "notice": "Retrieves the peer (OApp) associated with a corresponding endpoint."
      },
      "quoteOFT((uint32,bytes32,uint256,uint256,bytes,bytes,bytes))": {
        "notice": "Provides a quote for OFT-related operations."
      },
      "quoteSend((uint32,bytes32,uint256,uint256,bytes,bytes,bytes),bool)": {
        "notice": "Provides a quote for the send() operation."
      },
      "setDelegate(address)": {
        "notice": "Sets the delegate address for the OApp."
      },
      "setPeer(uint32,bytes32)": {
        "notice": "Sets the peer address (OApp instance) for a corresponding endpoint."
      }
    },
    "version": 1
  },
  "storageLayout": {
    "storage": [
      {
        "astId": 5252,
        "contract": "contracts/Source.sol:Source",
        "label": "_owner",
        "offset": 0,
        "slot": "0",
        "type": "t_address"
      },
      {
        "astId": 2430,
        "contract": "contracts/Source.sol:Source",
        "label": "peers",
        "offset": 0,
        "slot": "1",
        "type": "t_mapping(t_uint32,t_bytes32)"
      },
      {
        "astId": 3581,
        "contract": "contracts/Source.sol:Source",
        "label": "preCrime",
        "offset": 0,
        "slot": "2",
        "type": "t_address"
      },
      {
        "astId": 3046,
        "contract": "contracts/Source.sol:Source",
        "label": "enforcedOptions",
        "offset": 0,
        "slot": "3",
        "type": "t_mapping(t_uint32,t_mapping(t_uint16,t_bytes_storage))"
      },
      {
        "astId": 4199,
        "contract": "contracts/Source.sol:Source",
        "label": "msgInspector",
        "offset": 0,
        "slot": "4",
        "type": "t_address"
      },
      {
        "astId": 5641,
        "contract": "contracts/Source.sol:Source",
        "label": "_balances",
        "offset": 0,
        "slot": "5",
        "type": "t_mapping(t_address,t_uint256)"
      },
      {
        "astId": 5647,
        "contract": "contracts/Source.sol:Source",
        "label": "_allowances",
        "offset": 0,
        "slot": "6",
        "type": "t_mapping(t_address,t_mapping(t_address,t_uint256))"
      },
      {
        "astId": 5649,
        "contract": "contracts/Source.sol:Source",
        "label": "_totalSupply",
        "offset": 0,
        "slot": "7",
        "type": "t_uint256"
      },
      {
        "astId": 5651,
        "contract": "contracts/Source.sol:Source",
        "label": "_name",
        "offset": 0,
        "slot": "8",
        "type": "t_string_storage"
      },
      {
        "astId": 5653,
        "contract": "contracts/Source.sol:Source",
        "label": "_symbol",
        "offset": 0,
        "slot": "9",
        "type": "t_string_storage"
      },
      {
        "astId": 8814,
        "contract": "contracts/Source.sol:Source",
        "label": "docInfos",
        "offset": 0,
        "slot": "10",
        "type": "t_mapping(t_bytes32,t_struct(DocInfo)8809_storage)"
      },
      {
        "astId": 8816,
        "contract": "contracts/Source.sol:Source",
        "label": "issuer",
        "offset": 0,
        "slot": "11",
        "type": "t_address"
      },
      {
        "astId": 8818,
        "contract": "contracts/Source.sol:Source",
        "label": "tokenReward",
        "offset": 0,
        "slot": "12",
        "type": "t_uint256"
      }
    ],
    "types": {
      "t_address": {
        "encoding": "inplace",
        "label": "address",
        "numberOfBytes": "20"
      },
      "t_bytes32": {
        "encoding": "inplace",
        "label": "bytes32",
        "numberOfBytes": "32"
      },
      "t_bytes_storage": {
        "encoding": "bytes",
        "label": "bytes",
        "numberOfBytes": "32"
      },
      "t_mapping(t_address,t_mapping(t_address,t_uint256))": {
        "encoding": "mapping",
        "key": "t_address",
        "label": "mapping(address => mapping(address => uint256))",
        "numberOfBytes": "32",
        "value": "t_mapping(t_address,t_uint256)"
      },
      "t_mapping(t_address,t_uint256)": {
        "encoding": "mapping",
        "key": "t_address",
        "label": "mapping(address => uint256)",
        "numberOfBytes": "32",
        "value": "t_uint256"
      },
      "t_mapping(t_bytes32,t_struct(DocInfo)8809_storage)": {
        "encoding": "mapping",
        "key": "t_bytes32",
        "label": "mapping(bytes32 => struct Source.DocInfo)",
        "numberOfBytes": "32",
        "value": "t_struct(DocInfo)8809_storage"
      },
      "t_mapping(t_uint16,t_bytes_storage)": {
        "encoding": "mapping",
        "key": "t_uint16",
        "label": "mapping(uint16 => bytes)",
        "numberOfBytes": "32",
        "value": "t_bytes_storage"
      },
      "t_mapping(t_uint32,t_bytes32)": {
        "encoding": "mapping",
        "key": "t_uint32",
        "label": "mapping(uint32 => bytes32)",
        "numberOfBytes": "32",
        "value": "t_bytes32"
      },
      "t_mapping(t_uint32,t_mapping(t_uint16,t_bytes_storage))": {
        "encoding": "mapping",
        "key": "t_uint32",
        "label": "mapping(uint32 => mapping(uint16 => bytes))",
        "numberOfBytes": "32",
        "value": "t_mapping(t_uint16,t_bytes_storage)"
      },
      "t_string_storage": {
        "encoding": "bytes",
        "label": "string",
        "numberOfBytes": "32"
      },
      "t_struct(DocInfo)8809_storage": {
        "encoding": "inplace",
        "label": "struct Source.DocInfo",
        "members": [
          {
            "astId": 8802,
            "contract": "contracts/Source.sol:Source",
            "label": "prover",
            "offset": 0,
            "slot": "0",
            "type": "t_address"
          },
          {
            "astId": 8804,
            "contract": "contracts/Source.sol:Source",
            "label": "timestamp",
            "offset": 20,
            "slot": "0",
            "type": "t_uint40"
          },
          {
            "astId": 8806,
            "contract": "contracts/Source.sol:Source",
            "label": "signedHash",
            "offset": 0,
            "slot": "1",
            "type": "t_bytes_storage"
          },
          {
            "astId": 8808,
            "contract": "contracts/Source.sol:Source",
            "label": "proof",
            "offset": 0,
            "slot": "2",
            "type": "t_bytes_storage"
          }
        ],
        "numberOfBytes": "96"
      },
      "t_uint16": {
        "encoding": "inplace",
        "label": "uint16",
        "numberOfBytes": "2"
      },
      "t_uint256": {
        "encoding": "inplace",
        "label": "uint256",
        "numberOfBytes": "32"
      },
      "t_uint32": {
        "encoding": "inplace",
        "label": "uint32",
        "numberOfBytes": "4"
      },
      "t_uint40": {
        "encoding": "inplace",
        "label": "uint40",
        "numberOfBytes": "5"
      }
    }
  }
}